:020000040800F2
:10000000B010002079020008693C0008C1370008E0
:10001000653C0008A5050008314F000800000000FD
:10002000000000000000000000000000D53C0008B7
:1000300061060008000000006B3C0008D73C000887
:10004000930200089302000893020008930200083C
:10005000930200089302000893020008930200082C
:10006000930200089302000893020008A905000803
:10007000930200089302000893020008930200080C
:1000800093020008930200089302000893020008FC
:1000900093020008930200089302000893020008EC
:1000A00093020008930200089302000893020008DC
:1000B00093020008893D000893020008930200089B
:1000C00093020008930200089302000893020008BC
:1000D00093020008930200089302000893020008AC
:1000E00063060008930200089302000893020008C8
:1000F000930200089302000893020008930200088C
:10010000930200089302000893020008930200087B
:10011000930200089302000893020008930200086B
:10012000930200089302000893020008930200085B
:10013000930200089302000893020008930200084B
:10014000930200089302000893020008930200083B
:10015000930200089302000893020008930200082B
:10016000930200089302000893020008930200081B
:10017000930200089302000893020008930200080B
:1001800093020008930200089302000893020008FB
:100190009302000800000000930200089302000888
:1001A00093020008930200089302000893020008DB
:1001B00093020008930200089302000893020008CB
:1001C00093020008930200089302000893020008BB
:1001D000930200089302000800F002F800F03CF8D7
:1001E0000AA090E8000C82448344AAF10107DA4592
:1001F00001D100F031F8AFF2090EBAE80F0013F0A8
:10020000010F18BFFB1A43F00103184748500000C4
:1002100068500000103A24BF78C878C1FAD8520755
:1002200024BF30C830C144BF04680C607047000070
:100230000023002400250026103A28BF78C1FBD8EF
:10024000520728BF30C148BF0B6070471FB504F08C
:10025000EFFF1FBD10B510BD00F0CFF81146FFF73E
:10026000F5FF04F055FF00F0EDF803B4FFF7F2FFDF
:1002700003BC00F0F5F80000094880470948004732
:10028000FEE7FEE7FEE7FEE7FEE7FEE7FEE7FEE746
:10029000FEE7FEE704480549054A064B70470000A3
:1002A0006D3D0008D9010008B00A0020B010002000
:1002B000B00C0020B00C002053EA020C00F0698062
:1002C0002DE9F04B4FF00006002B1FBFB3FA83F56A
:1002D00003FA05F424FA05F65E4012BF1643B2FA9B
:1002E00082F502FA05F4C5F120051EBF22FA05FCCD
:1002F00044EA0C04203556EA044C4FEA144418BF73
:10030000641C4FF000084FF00009904271EB030CA1
:1003100039D3002919BFB1FA81F701FA07F6B0FA0B
:1003200080F700FA07F6C7F120071EBF20FA07FC86
:1003300046EA0C062037B6FBF4FCA7EB0507103F96
:1003400007F01F0BCBF120060CFA0BFB2CFA06F67C
:1003500044BFB3460026202FA4BF5E464FF0000BDB
:100360005BEA060C08BF4FF0010B19EB0B09ABFB66
:10037000027C48EB0608C01B06FB02CC0BFB03CC3F
:1003800071EB0C01C1E70B46024641464846BDE809
:10039000F08B13B54FF000004FF00001AFF3008079
:1003A000BDE81C4070474FF0000200B5134694466C
:1003B0009646203922BFA0E80C50A0E80C50B1F1BD
:1003C0002001BFF4F7AF090728BFA0E80C5048BFD1
:1003D0000CC05DF804EB890028BF40F8042B08BF6F
:1003E000704748BF20F8022B11F0804F18BF00F86B
:1003F000012B7047704770477047754600F02CF826
:10040000AE4605006946534620F00700854618B001
:1004100020B5FFF73FFFBDE820404FF000064FF04A
:1004200000074FF000084FF0000B21F00701AC4629
:10043000ACE8C009ACE8C009ACE8C009ACE8C00948
:100440008D46704710B50446AFF300802046BDE8E6
:100450001040FFF70ABF0000004870474C0A002018
:1004600001491820ABBEFEE726000200704770B5B8
:100470000546AC6AE06D00F0500098BBE06D40F4BA
:100480000070E0652068006800F00800A8B12068EE
:1004900003F0C2F910B32068C06800F40050E8B956
:1004A000E06D20F48070E065E06D00F48050A8B944
:1004B000E06D40F00100E06510E02068C06800F0E9
:1004C000020058B9E06D20F48070E065E06D00F442
:1004D000805018B9E06D40F00100E065204600F062
:1004E00085FB0CE0FFE7E06D00F0100018B120463E
:1004F00000F090FB03E0606D416B2846884770BDBB
:1005000070B50546AC6AE06D40F04000E065206ED5
:1005100040F004002066204600F07CFB70BD70B502
:100520000446A56A284600F06BFB70BD70B5044612
:10053000206803F062F988BB206880681849084089
:1005400048B1E06D40F01000E065206E40F0010021
:100550002066012070BD206803F034F901F0B2FC80
:10056000054615E0206803F048F910B9206803F04B
:1005700029F901F0A7FC401B022809D9E06D40F0E1
:100580001000E065206E40F0010020660120E1E7E8
:100590002068006800F001000028E3D00020D9E7BF
:1005A0003F00008000BFFEE710B5024801F02AFAC4
:1005B00010BD0000D000002030B50E4D0468AC42E4
:1005C00001D20D4901E00C4920310B460478083C6A
:1005D0001425B4FBF5F2446CA40803EB8404846492
:1005E000054C8034C46402F01F050124AC4004654E
:1005F00030BD0000080402400008024001794A1E94
:10060000064B03EB82024265044A403282654A1E71
:1006100002F01F0301229A40C265704700090240A0
:1006200030B5D0E913546C60446D14B1D0E9165460
:100630006C6090F8444004F01F050124AC40056C48
:100640006C60046863608468102C04D10468A26044
:100650000468E16003E00468A1600468E26030BD02
:10066000704710B54FF4005001F02CFB10BD7047DF
:100670002DE9F84F05460C464FF0000A0020009087
:10068000FE49E068884200D000E000BF00BF95F856
:100690005800012802D10220BDE8F88F012085F81A
:1006A000580000BF286803F0B2F800287DD12968FF
:1006B000D4E9002001F1300CC0F3012B0CEB8B03CB
:1006C000D3F800C000F01F0E4FF01F0B0BFA0EFB0B
:1006D0002CEA0B0C00F01F0BC2F3846E0EFA0BFE1B
:1006E0004CEA0E0CC3F800C000BF286803F08FF876
:1006F0008146286803F07CF88046B9F1000F64D188
:10070000B8F1000FFBD1A068B0F1004F0AD1216809
:100710000022286803F092F84FF00041286803F0A7
:10072000B2F808E0A2682168286803F087F8002181
:10073000286803F0A8F860692968C968C1F3C10195
:10074000490000FA01F7206904283FD02868226890
:10075000216900F1600C0CEB8103D3F800C0DFF8D5
:1007600020B30CEA0B0C02F0F84B4BF0004B4BEAB9
:10077000070B4CEA0B0CC3F800C000BF2868A26945
:10078000216900F1600C0CEB8103D3F800C02CF060
:10079000807C4CEA020CC3F800C000BF2868227FAE
:1007A0002169012A02D1520601E0F9E10022134633
:1007B00000F1600C0CEB8102D2F800C02CF0007C40
:1007C0004CEA030CC2F800C000BFA7E00021286873
:1007D00003F005F8C0F3120030B90021286802F0D8
:1007E000FEFFC0F3846007E00021286802F0F7FFF5
:1007F00090FAA0F0B0FA80F02168C1F3120119B9A3
:100800002168C1F3846104E0216891FAA1F1B1FA91
:1008100081F1884204D100221146286803F028F8AB
:100820000121286802F0DBFFC0F3120030B901217A
:10083000286802F0D4FFC0F3846007E00121286833
:1008400002F0CDFF90FAA0F0B0FA80F02168C1F379
:10085000120119B92168C1F3846104E0216891FA99
:10086000A1F1B1FA81F1884204D100220121286866
:1008700002F0FEFF0221286802F0B1FFC0F312006F
:1008800030B90221286802F0AAFFC0F3846007E0B3
:100890000221286802F0A3FF90FAA0F0B0FA80F0DD
:1008A0002168C1F3120119B92168C1F3846104E020
:1008B000216891FAA1F1B1FA81F1884204D10022B4
:1008C0000221286802F0D4FF0321286802F087FF84
:1008D000C0F3120030B90321286802F080FFC0F392
:1008E000846007E00321286802F079FF90FAA0F005
:1008F000B0FA80F02168C1F3120119B92168C1F37F
:10090000846104E0216891FAA1F1B1FA81F1884291
:1009100004D100220321286802F0AAFF286802F00F
:100920006CFF002872D12868E2682168D0F8B030E6
:10093000C1F3120C23EA0C0302F0180BDFF844C1D8
:100940002CFA0BFC0CEA010C43EA0C03C0F8B030A3
:1009500000BF4A49E068884258D12368C3F31203B4
:100960001BB92368C3F3846304E0236893FAA3F3F9
:10097000B3FA83F35B1C03F01F03092B3ED82368F3
:10098000C3F312031BB92368C3F3846304E0236831
:1009900093FAA3F3B3FA83F35B1C03F01F034FF046
:1009A000010C0CFA03FC2368C3F312031BB9236880
:1009B000C3F3846304E0236893FAA3F3B3FA83F3E5
:1009C0005B1C03F01F034CEA836C2368C3F3120320
:1009D0001BB92368C3F3846304E0236893FAA3F389
:1009E000B3FA83F35B1C03F01F0303EB43034FF0E5
:1009F000000B4BEA03534CEA030347E02368C3F3BD
:100A0000120323B92368C3F3846305E043E023683A
:100A100093FAA3F3B3FA83F35B1C03F01F034FF0C5
:100A2000010C0CFA03FC2368C3F312031BB92368FF
:100A3000C3F3846304E0236893FAA3F3B3FA83F364
:100A40005B1C03F01F034CEA836C2368C3F312039F
:100A50001BB92368C3F3846304E0236893FAA3F308
:100A6000B3FA83F35B1C03F01F030A3B03EB43035E
:100A70004FF0007B4BEA035306E0000000007F408C
:100A800000F0FF03FFFF07004CEA03031946A268CA
:100A9000286802F0D3FE494920680840002842D067
:100AA0002968B1F1A04F03D0454A2968914201D18C
:100AB000444900E044490846816801F0E07600BFFF
:100AC00042492068884203D04149206888422BD19E
:100AD00006F4000040BB2868B0F1A04F03D03D49A8
:100AE0002868884262D12A68B2F1A04F03D0344B03
:100AF0002A689A4201D1334A00E0334A104646F44C
:100B0000000102F0AFFE344800683449B0FBF1F058
:100B100000EB40008000009002E00098401E009032
:100B200000980028F9D141E02D49206888421BD166
:100B300006F08070C0B922492868884203D129494B
:100B40002868884232D02A68B2F1A04F03D01C4BEB
:100B50002A689A4201D11B4A00E01B4A104646F01F
:100B6000807102F07FFE21E01F49206888421DD17C
:100B700006F48000D0B912492868884216D02A6845
:100B8000B2F1A04F03D00B462A689A4201D10D4A18
:100B900000E00D4A104646F4800102F063FE05E0D5
:100BA000E86D40F02000E8654FF0010A00BF00202A
:100BB00085F8580000BF50466EE500000000088030
:100BC000000100500003005000070050000021C346
:100BD0001000C0900006005060000020400D03008F
:100BE000000052C700050050000084CB10B5044639
:100BF00019200249088004F0B9F910BD3000002026
:100C000010B5044600200249088004F0AFF910BD79
:100C100030000020704700002DE9F84F04464FF0E7
:100C200000090020009014B90120BDE8F88F606928
:100C300020B194F82400012800D100BFE06D30B944
:100C4000204600F049F90020206684F8580020680A
:100C50008168C1F3407131B120688168934A1140C5
:100C6000816000BF00BF206802F0CCFDA0B9206801
:100C700081688F4A114041F08051816000BF8D48EA
:100C800000688D49B0FBF1F0009002E00098401E32
:100C9000009000980028F9D1206802F0B3FD48B90F
:100CA000E06D40F01000E065206E40F0010020662D
:100CB0004FF00109206802F0AAFD0646E06D00F041
:100CC000100000287ED1002EFCD1E06D20F4807051
:100CD00040F00200E065206802F08FFD88BB2068CC
:100CE000B0F1A04F03D075492068884201D1744803
:100CF00000E07448724988420AD14FF0A04002F0E7
:100D00007CFD82466D4802F078FD4AEA00000DE065
:100D10006D4802F072FD82466C4802F06EFD4AEAB0
:100D2000000A6B4802F069FD4AEA000048B92268EF
:100D3000B2F1A04F03D0614B22689A4202D1604ABF
:100D400001E009E05F4A10466168826822F47C1283
:100D50000A43826000BF00BF607FE16B41EA403020
:100D6000E1680843A168084394F8241040EA01456B
:100D700094F82400012803D1208D401E45EA404507
:100D8000E06A28B1A08D00F47870216B0843054318
:100D90002068C0684F49084028432168C86020681F
:100DA000006920F04060616B084321680861206899
:100DB00002F02DFD8046206802F01AFD0746B8F1CA
:100DC000000F00E06AE04FD1F7BB207F002141EA2D
:100DD000803194F8380041EA40052068C06844F248
:100DE0000201884328432168C860206980B12068D7
:100DF000006940F48030216808612068D0F8C000A4
:100E00006FF30D00216908432168C1F8C0000DE0AF
:100E10002068006920F48030216808612068D0F8DB
:100E2000C0006FF30D002168C1F8C00094F84000C5
:100E3000012813D1606C40F00101A06C0843E16C03
:100E40000843216D084300E00EE02168096940F283
:100E5000FC72914308432168086105E0206800693D
:100E600020F00100216808616069012809D120682B
:100E7000006B20F00F00216A491E084321680863B7
:100E800005E02068006B20F00F0021680863E06D2A
:100E900020F0020040F00100E06505E0E06D40F068
:100EA0001000E0654FF001094846BEE6C0FFFF5F55
:100EB000C0FFFF7F60000020400D030000010050D4
:100EC00000030050000700500004005000050050CF
:100ED000000600500740F0FF10B586B0044614210C
:100EE00001A8FFF760FA24492068884241D100BF79
:100EF0002248C06C40F400502049C8640846C06CC9
:100F000000F40050009000BF00BF00BF0846C06C56
:100F100040F00200C8640846C06C00F00200009077
:100F200000BF00BF04200190032002900020039026
:100F300001A9134800F0D4FE124813490860242088
:100F40004860002110488160C16080210161490032
:100F50004161890081612021C1610902016200F0C3
:100F6000D1FD08B1FFF783FB00BF074860658462CD
:100F700000BF06B010BD000000010050001002408C
:100F80000004004808000240D00000202DE9F04194
:100F900004462168B1F1A04F03D0504A2168914224
:100FA00001D14F4900E04F49084602F013FC0546C5
:100FB000206802F02CFC002873D100BF94F8580080
:100FC000012802D10220BDE8F081012084F85800F8
:100FD00000BF2046FFF7AAFA0646002E76D1E06D44
:100FE00040F60161884340F48070E0653B49206829
:100FF000884202D14FF0A04006E03B492068884279
:1010000001D13A4800E020682168884200D01DB92B
:10101000E06D20F48010E065E06D00F48050B0F5E4
:10102000805F04D1206E20F00600206601E00020E1
:1010300020661C202168086000BF002084F858004A
:1010400000BF26492068884202D14FF0A04006E048
:1010500025492068884201D1244800E020682168A1
:10106000884204D01DB1052D01D0092D0ED1206874
:10107000C06800F0007028B1E06D20F4005040F42A
:101080008050E065206802F0D1FB25E0E06D40F47F
:101090008010E06511492068884203D14FF0A040DC
:1010A00007E018E010492068884201D10F4800E0AD
:1010B00020680746F86800F0007068B1E06D20F421
:1010C000005040F48050E06506E0FFE700BF0020DC
:1010D00084F8580000E00226304674E70001005012
:1010E00000030050000700500005005000040050AD
:1010F0002DE9F04104460F4690462168B1F1A04F1A
:1011000003D0444A2168914201D1434900E0434958
:10111000084602F05FFB0646206802F078FB0028D4
:1011200074D100BF94F85800012802D10220BDE814
:10113000F081012084F8580000BF1EB1052E01D0B7
:10114000092E5CD12046FFF7F1F90546002D51D15B
:10115000E06D40F60161884340F48070E0652D4900
:101160002068884202D14FF0A04006E02C49206858
:10117000884201D12B4800E020682168884200D0D5
:101180001EB9E06D20F48010E065E06D00F4805041
:1011900020B1206E20F00600206601E000202066CD
:1011A0002148616DC8622148616D08632048616D06
:1011B00048631C202168086000BF002084F85800A4
:1011C00000BF2068406840F0100021684860206837
:1011D000C06840F001002168C860226802F1400147
:1011E00043463A46606D00F0F5FC0546206802F083
:1011F0001DFB0CE000BF002084F8580007E001252B
:1012000000BF002084F8580001E0FFE702252846CF
:101210008DE700000001005000030050000700505F
:1012200000050050000400506F0400081F0500086E
:10123000010500082DE9F84304460020009080468F
:1012400014B94FF0010880E12068006800F0004008
:10125000B0F1004F02D14FF0010876E1607F28B96C
:10126000002020772062204600F07CF9206800688A
:1012700000F40007D4E90110084361690843E168FC
:101280000843216940EA010620680068B049084027
:101290003043216808602068006800F4000080B1D5
:1012A0007FB9AC480068AC49B0FBF1F000EB8000BE
:1012B0008000009002E00098401E009000980028F6
:1012C000F9D1A6492068884202D14FF4001025E0E8
:1012D000A249091D2068884202D14FF480001DE018
:1012E0009E4908312068884201D1800616E09B495A
:1012F0000C312068884202D14FF080400EE09749BF
:1013000010312068884201D1C00607E093491431AA
:101310002068884201D1012000E002200546207E9D
:1013200000F0030000287DD0207E00F01000D0B136
:101330008A4914312068884203D0091D20688842F8
:1013400007D100BF8648006828438549086000BF70
:1013500024E000BF824820380068284380492039B3
:10136000086000BF1AE07D4914312068884203D02C
:10137000091D2068884207D100BF79480068A8434A
:101380007749086000BF09E000BF75482038006851
:10139000A84373492039086000BF00BF207E00F0D9
:1013A0002000E0B16D4914312068884203D0091D46
:1013B0002068884209D100BF6948001D00682843A1
:1013C0006749091D086000BF26E000BF64481C385B
:1013D0000068284362491C39086000BF1CE05F496F
:1013E00014312068884203D0091D2068884209D141
:1013F00000BF5B48001D0068A8435949091D0860EB
:1014000000BF09E000BF56481C380068A843544993
:101410001C39086000BF00BF504914312068884261
:1014200005D000E06DE0091D2068884203D1284600
:1014300002F036FA02E0284602F02CFA207E00F094
:101440000200E0B1454914312068884203D0091DEB
:101450002068884209D100BF4148001F0068284326
:101460003F49091F086000BF19E000BF3C4824380D
:10147000006828433A492439086000BF0FE0374923
:1014800014312068884203D0091D2068884203D1A6
:10149000284602F013FA02E0284602F007FA207EFE
:1014A00000F00100E0B12D4914312068884203D0DA
:1014B000091D2068884209D100BF29480838006802
:1014C000284327490839086000BF3AE000BF244894
:1014D00028380068284322492839086000BF30E0D6
:1014E0001E4914312068884203D0091D20688842B3
:1014F00003D1284602F0F2F923E0284602F0E6F98B
:101500001FE0164914312068884203D0091D206865
:10151000884203D1284602F0D1F902E0284602F0C1
:10152000C5F90E4914312068884203D0091D20688E
:10153000884203D1284602F0D1F902E0284602F0A1
:10154000C5F9607F08B9012060774046BDE8F8839F
:101550000F7E00FF60000020400D030000020140EC
:101560002804014010B586B00446142101A8FEF7F6
:101570001AFF1C492068884231D100BF1A48C06C4C
:1015800040F002001849C8640846C06C00F0020030
:10159000009000BF00BF00BF0846C06C40F00400D0
:1015A000C8640846C06C00F00400009000BF00BF93
:1015B000C8140190032002900020039001A90B4859
:1015C00000F08EFB4020019002200290002003904A
:1015D00004900720059001A9054800F081FB06B0A2
:1015E00010BD000014020140001002400004004839
:1015F0000008004808B5014600220092002009B901
:10160000012024E00A68126802F00042B2F1004FA3
:1016100001D101201BE04A7F012A17D10A68126814
:1016200042F001020B681A6002224A77084A1268E7
:10163000084BB2FBF3F202EB8202009202E0009A46
:10164000521E0092009A002AF9D100E0012008BD44
:101650006000002080841E002DE9F05F04460D46E6
:1016600016464FF0000BE869012800D100BFA868BA
:10167000042800D100BF00BF6079012802D10220F8
:10168000BDE8F09F0120607100BF02202071A868B2
:10169000042855D1EEB900F015FC83460CE000F0AB
:1016A00011FCA0EB0B00012806D9206940F00800CE
:1016B000206103202071E3E72068406B00F40040C4
:1016C0000028ECD1012000F0E7FA686A216808647C
:1016D00019E00CE000F0F6FBA0EB0B00012806D9A6
:1016E000206940F00800206103202071C8E72068CD
:1016F000406B00F000400028ECD1012000F0CCFA53
:10170000686A216848642068806C06F0100240F224
:10171000FF319140884306F01002A96A91400843C6
:10172000216888642068C06C06F01002FF21914097
:10173000884306F01002E96A914008432168C864B2
:10174000E86901280FD12068876B06F010011F207F
:1017500088408743D5F8208006F0100008FA00F092
:101760000743206887632068C76B06F010010720D5
:1017700088408743287E00F0010010B14FF0000937
:101780000EE0287E00F00200022802D14FF001098D
:1017900006E0686910B94FF0010901E04FF0000957
:1017A0006969A868084340EA090806F010014FF487
:1017B0008070884087432879012801D1000200E029
:1017C000002040EA080806F010014FF4007088403D
:1017D00087436879012801D1400200E0002040EAF7
:1017E000080827F44047286802280FD101F0F8F8CC
:1017F00082462C498A4502D947F4004708E02A4826
:10180000824502D947F4804702E001E02868074397
:1018100006F0100108FA01F007432068C76320684A
:10182000006806F010024FF480419140884321681F
:1018300008602068076806F0100140F6FE708840D6
:101840008743D5F80C8006F0100108FA01F0074331
:10185000206807602068006806F01002C0219140EF
:10186000884321680860287BC0F38308287CC0F384
:10187000830048EA00282068006E06F0100240F657
:101880000F719140884306F0100108FA01F10843F6
:10189000216808660120207100BF0020607100BF30
:1018A00000BFEDE60068890900B4C40410B5044621
:1018B0000CB9012010BD207920B9002060712046AC
:1018C00000F008F802202071002020610120207122
:1018D0000020EFE710B586B00446142101A8FEF7FA
:1018E00062FD16492068884225D100BF1448C06CAB
:1018F00040F400301249C8640846C06C00F400305F
:10190000009000BF00BF00BF0846C06C40F001005F
:10191000C8640846C06C00F00100009000BF00BF22
:1019200040200190032002900020039001A94FF075
:10193000904000F0D5F906B010BD0000000C00503A
:101940000010024078B50446002000902068C06B6B
:1019500001F010064FF48075B540284000B900BF73
:101960002068009029B902F10800009D28440090E9
:1019700004E002F11400009D2844009000980360E8
:10198000002078BD70B504460D4600BF607901287F
:1019900001D1022070BD0120607100BF02202071C2
:1019A0002068006805F01002012191400843216879
:1019B0000860012000F070F965B92068006800F047
:1019C0003E00022816D12068406840F001002168DE
:1019D00048600FE02068006800F4781105F01002FC
:1019E00002209040814205D12068406840F002000A
:1019F000216848600120207100BF0020607100BF95
:101A000000BFC7E770B50446206C0568206806680B
:101A100094F8440000F01F01042088402840E0B101
:101A200006F00400C8B12068006800F0200028B962
:101A30002068006820F004002168086094F84400E1
:101A400000F01F0104208840216C4860206B0028B2
:101A500056D02046216B884752E094F8440000F0AD
:101A60001F0102208840284018B306F0020000B38E
:101A70002068006800F0200040B92068006820F06D
:101A80000A0021680860012084F8250094F84400C9
:101A900000F01F0102208840216C486000BF002038
:101AA00084F8240000BFE06A50B32046E16A88470A
:101AB00026E094F8440000F01F01082088402840E8
:101AC000F0B106F00800D8B12068006820F00E00E0
:101AD0002168086094F8440000F01F01012088404C
:101AE000216C48600120E06384F8250000BF0020DD
:101AF00084F8240000BF606B10B12046616B8847FA
:101B000070BD000070B504460CB9012070BD2F49AE
:101B1000206888420BD22E492068401A1421B0FB5D
:101B2000F1F0800060642A48083820640AE0274900
:101B30002068401A1421B0FBF1F080006064234853
:101B400008382064022084F825002068056847F6DC
:101B5000F0708543D4E902010843216908436169B3
:101B60000843A1690843E1690843216A0843054322
:101B7000206805602046FEF71FFDA068B0F5804F85
:101B800001D1002060602079A16C0860D4E91310B5
:101B90004860606860B16068042809D82046FEF794
:101BA0002DFD0020616D0860D4E91610486003E047
:101BB00000206065A065E0650020E063012084F8F6
:101BC0002500002084F8240000BF9FE7080402409D
:101BD000080002402DE9F04104460D4616461F4616
:101BE0004FF0000800BF94F82400012802D1022021
:101BF000BDE8F081012084F8240000BF94F825009E
:101C000001283FD1022084F825000020E0632068ED
:101C1000006820F00100216808603B4632462946F2
:101C20002046FEF7FDFC206B30B12068006840F0D4
:101C30000E00216808600BE02068006820F00400B6
:101C4000216808602068006840F00A002168086088
:101C5000A06C006800F4803028B1A06C006840F4EB
:101C60008070A16C0860606D28B1606D006840F400
:101C70008070616D08602068006840F00100216894
:101C8000086006E000BF002084F8240000BF4FF089
:101C900002084046ACE7000070B5044600F012F9B7
:101CA00006462546681C10B104480068054400BF7C
:101CB00000F008F9801BA842FAD370BD5C00002038
:101CC0007047000010B5044604480068204020B169
:101CD000024804602046FFF7F3FF10BD14040140E2
:101CE00078B503460022D0E0012696400D6805EA4B
:101CF0000604002C72D04D68012D08D04D68022DCD
:101D000005D04D68112D02D04D68122D13D1986861
:101D100056000325B540A8435600CD68B54028437A
:101D20009860586801259540A8430D79C5F30015C2
:101D3000954028435860D86856000325B540A8430D
:101D400056008D68B5402843D8604D68022D02D0FA
:101D50004D68122D13D1D60803F1200555F8260041
:101D60005507EE0E0F25B540A8435607F60E0D6930
:101D7000B5402843D60803F1200545F82600186829
:101D800056000325B540A8430D7905F0030556001C
:101D9000B540284318604D6805F08055B5F1805F67
:101DA00072D100BF3C4D2D6E45F001053A4E3566AF
:101DB00035462D6E05F00105009500BF00BF4FEAC6
:101DC000B635960855F8260095072E0F0F25B54015
:101DD000A843B3F1904F02D100251AE054E02F4DF3
:101DE000AB4201D1012514E02D4DAB4201D10225BA
:101DF0000FE02C4DAB4201D103250AE02A4DAB4246
:101E000001D1042505E0294DAB4201D1052500E0B3
:101E100006259607360FB5402843254D960845F808
:101E20002600244D2868A0434D6805F48035B5F59B
:101E3000803F00D120431F4D28602D1D2868A043FE
:101E40004D6805F40035B5F5003F00D12043194D2C
:101E50002D1D28602D1D2868A0434D6805F48015B0
:101E6000B5F5801F00D12043124D083528602D1D87
:101E70002868A0434D6805F40015B5F5001F00D192
:101E800020430C4D0C352860521C0D68D540002DA8
:101E90007FF42AAF78BD0000001002400004004823
:101EA00000080048000C00480010004800140048DA
:101EB00008000140000401400AB1816100E0816234
:101EC000704700000148006870470000540000207F
:101ED00003480068034909680844014908607047DD
:101EE000540000205C00002010B50024032000F006
:101EF000AFF8002000F008F808B1012401E000F07C
:101F00002FF8204610BD000070B50446002511488A
:101F10000068D8B10F4800684FF47A71B1FBF0F057
:101F20000D490968B1FBF0F6304601F083F858B965
:101F3000102C07D200222146501E00F04BF8074813
:101F4000046004E0012502E0012500E001252846A7
:101F500070BD00005C0000206000002058000020E0
:101F600008B500BF1148006E40F001000F49086637
:101F70000846006E00F00100009000BF00BF00BFE7
:101F80000846806D40F0805088650846806D00F0FE
:101F90008050009000BF00BF00BF0548806840F43B
:101FA00080400349886000BF08BD00000010024067
:101FB0000070004001460846002809DB00F01F03BE
:101FC00001229A4043099B0003F1E023C3F800215A
:101FD00000BF70472DE9F05F80460D46164602F0BF
:101FE000A9FF074639462A46334601F00700C0F1EB
:101FF000070ABAF1040F02D94FF0040A01E0C0F158
:10200000070AD14600F1040ABAF1070F02D24FF0D5
:10201000000A01E0A0F1030AD4464FF0010A0AFACF
:1020200009FAAAF1010A0AEA020A0AFA0CFA4FF0BE
:10203000010B0BFA0CFBABF1010B0BEA030B4AEAA9
:102040000B042146404602F07DFFBDE8F09F0000F2
:1020500000BF00F00702064B19684FF6FF03194056
:10206000044B0B4343EA0221014B196000BF704748
:102070000CED00E00000FA0538B5044600250CB967
:10208000012038BD94F83A00052801D10120F8E775
:1020900094F83A00022801D10120F2E7A06800B9C3
:1020A00000BFA06900B100BFA068402800D100BFF8
:1020B000E06A102800D100BF00BF4248006E40F027
:1020C0000100404908660846006E00F001000090DB
:1020D00000BF00BF94F83A0010B9002084F839001E
:1020E000204600F073F8A068402802D0A06860285D
:1020F00026D12068006820F01000E16A08432168BA
:102100000860D4E90101084321690843217D0129C0
:1021100001D1090200E000210843616A0843A16A75
:102120000843218E40EAC14194F8340041EA00603E
:1021300021680968244A114008432168086027E0A3
:102140002068006820F01000E16A084321680860F8
:10215000D4E901010843E168084321690843217D6E
:10216000012901D1090200E000210843616A084306
:10217000A16A0843218E40EAC14194F8340041EA43
:10218000006021680968104A11400843216808600E
:102190002068806900F0004058B9D4E9060108437E
:1021A000216A08432168896921F03F0108432168B9
:1021B000886194F83A0010B9012084F83A00284662
:1021C0005FE7000000100240113E00E010B586B04D
:1021D0000446142101A8FEF7E6F81B49206888424E
:1021E0002FD100BF1948C06C40F001001749C864E6
:1021F0000846C06C00F00100009000BF00BF00BFA7
:102200000846C06C40F00200C8640846C06C00F08C
:102210000200009000BF00BF022001900320029046
:102220000020039001A94FF09040FFF759FD0220D4
:102230000190032002900020039001A90448FFF7B9
:102240004FFD06B010BD0000080301400010024021
:10225000000400480146002009B9012014E091F86B
:102260003A20052A01D101200EE091F83A20012AF6
:1022700009D10A68126842F001020B681A60042250
:1022800081F83A2000E001207047000002468ABB36
:102290004148006800F4C060B0F5806F2BD13E4823
:1022A0008030006820F480703B4BC3F880001846F3
:1022B000006820F4C06040F400701860374800687F
:1022C00032235843364BB0FBF3F0411C00E0491E6B
:1022D0003148406900F48060B0F5806F01D1002979
:1022E000F5D12D48406900F48060B0F5806F51D180
:1022F0000320704708E028488030006820F4807090
:10230000254BC3F8800045E0B2F5007F3AD1224862
:10231000006800F4C060B0F5806F2AD11E4880309C
:10232000006840F480701C4BC3F8800018460068B9
:1023300020F4C06040F40070186018480068322330
:102340005843174BB0FBF3F0411C00E0491E124804
:10235000406900F48060B0F5806F01D10029F5D1AB
:102360000D48406900F48060B0F5806F12D1032001
:10237000BFE709488030006840F48070064BC3F81E
:10238000800007E00448006820F4C06040F48060EA
:10239000014B18600020ACE7007000406000002096
:1023A00040420F002DE9F84304460027B846206854
:1023B00000F40020B0F5002F73D1B946FD48806DC0
:1023C00000F0805078B900BFFA48806D40F080502E
:1023D000F84988650846806D00F08050009000BF85
:1023E00000BF4FF00109F448006840F48070F249E2
:1023F0000860FFF767FD064606E0FFF763FD801BF8
:10240000022801D9032705E0EB48006800F480703A
:102410000028F2D000BF002F46D1E6489030006877
:1024200000F44075CDB1206DA84216D0E14890303F
:10243000006820F44075DF48D0F8900040F4803008
:10244000DC49C1F890000846D0F8900020F48030B4
:10245000C1F890000846C0F8905005F00100A0B106
:10246000FFF730FD064608E0FFF72CFD801B41F228
:102470008831884201D9032706E0CE4890300068B1
:1024800000F002000028EFD000BF5FB9C9489030CB
:10249000006820F44070216D0843C649C1F89000DF
:1024A00003E00CE0B84600E0B846B9F1010F05D1F1
:1024B000C048806D20F08050BE49886500BF2078FC
:1024C00000F0010048B1BB488830006820F00300EC
:1024D00061680843B749C1F88800207800F002001D
:1024E000022809D1B3488830006820F00C00A168A8
:1024F0000843B049C1F88800207800F0040004289F
:1025000009D1AC488830006820F03000E168084309
:10251000A849C1F88800207800F00800082809D1EF
:10252000A4488830006820F0C00021690843A14910
:10253000C1F88800207800F01000102809D19D48CB
:102540008830006820F44070616908439949C1F8F7
:102550008800207800F02000202809D19548883094
:10256000006820F44060A16908439249C1F88800DE
:10257000207800F04000402809D18E48883000685B
:1025800020F44050E16908438A49C1F88800207866
:1025900000F08000802809D186488830006820F447
:1025A0004040216A08438349C1F88800208800F42C
:1025B0008070B0F5807F09D17E488830006820F4B3
:1025C0004030616A08437B49C1F88800206800F404
:1025D0000030B0F5003F09D176489C30006820F00B
:1025E0000300A16A08437349C1F89C00208800F4E5
:1025F0000070B0F5007F09D16E488830006820F483
:102600004020E16A08436B49C1F88800208800F443
:102610008060B0F5806F13D166488830006820F480
:102620004010216B0843634988310860206BB0F586
:10263000801F05D15F48C06840F480105D49C860C4
:10264000208800F40060B0F5006F13D1594888303D
:10265000006820F44000616B0843564988310860E7
:10266000606BB0F5800F05D15248C06840F480100F
:102670005049C860208800F48050B0F5805F13D1C5
:102680004C488830006820F04070A16B08434949ED
:1026900088310860A06BB0F1807F05D14548C068E3
:1026A00040F480104349C860208800F40050B0F521
:1026B000005F13D13F488830006820F04060E16B34
:1026C00008433C4988310860E06BB0F1006F05D1E8
:1026D0003848C06840F480103649C860208800F44B
:1026E0008040B0F5804F13D132488830006820F028
:1026F0004060216C08432F4988310860206CB0F19C
:10270000006F05D12B48C06840F480102949C8608B
:10271000208800F40040B0F5004F13D125488830E0
:10272000006820F04050616C0843224988310860FD
:10273000606CB0F1805F05D11E48C06840F4803005
:102740001C49C860206800F48030B0F5803F13D188
:1027500018488830006820F04040A16C08431549B3
:1027600088310860A06CB0F1804F05D11148C06875
:1027700040F480300F49C860206800F48020B0F534
:10278000802F13D10B489C30006820F44010E16C7E
:10279000084308499C310860E06CB0F5001F05D182
:1027A0000448C06840F480100249C8604046BDE853
:1027B000F883000000100240007000402DE9F04155
:1027C00004460D464FF0000814B90120BDE8F08121
:1027D0007D48006800F00F00A8420ED27A480068D9
:1027E00020F00F002843784908600846006800F090
:1027F0000F00A84201D00120E8E7207800F0010096
:10280000002864D06068032823D17048006800F075
:10281000007008B90120D9E701F028FA06466C4893
:10282000864237D96948806800F0F00030B12078DE
:1028300000F0020002282DD1A06858BB63488068D0
:1028400020F0F00040F08000604988604FF0800880
:1028500020E06068022806D15C48006800F400307F
:1028600040B90120B2E75948006800F4806008B917
:102870000120ABE700F0DEF806465548864209D94C
:102880005248806820F0F00040F080004F49886096
:102890004FF080084D48806820F0030061680843CD
:1028A0004A498860FFF70EFB074608E0FFF70AFB7E
:1028B000C01B41F28831884201D9032086E7434892
:1028C000806800F00C006168B0EB810FEED12078D9
:1028D00000F00200022820D1207800F00400042833
:1028E00005D13A48806840F4E06038498860207833
:1028F00000F00800082807D13448806820F46050B0
:1029000040F4E060314988603048806820F0F00091
:10291000A16808432D49886008E0B8F1800F05D10F
:102920002A48806820F0F00028498860264800681E
:1029300000F00F00A84219D92348006820F00F00CA
:10294000284321490860FFF7BDFA074608E0FFF772
:10295000B9FAC01B41F28831884201D9032035E71A
:102960001948006800F00F00A842F0D1207800F06C
:102970000400042807D11548806820F4E060E1686D
:10298000084312498860207800F00800082808D120
:102990000E48806820F46050216940EAC1000B496C
:1029A000886000F047F809498968C1F30311094AB2
:1029B000515C01F01F01C8400749086007480068E2
:1029C000FFF7A2FA02E700000020024000100240D8
:1029D00000B4C4043A5200086000002058000020EF
:1029E00001480068704700006000002000B5FFF754
:1029F000F7FF05498968C1F30221044A515C01F0DF
:102A00001F01C84000BD0000001002404A520008EB
:102A100000B5FFF7E5FF05498968C1F3C221044A03
:102A2000515C01F01F01C84000BD000000100240D1
:102A30004A52000870B5224DAD6805F00C05042D12
:102A400001D120483AE01E4DAD6805F00C05082D77
:102A500001D11D4832E01A4DAD6805F00C050C2D72
:102A60002BD1174DED6805F00304154DED68C5F346
:102A700003156A1C022C0CD0032C09D1124DB5FB96
:102A8000F2F50F4EF668C6F3062605FB06F10AE0DE
:102A900000BF0C4DB5FBF2F5094EF668C6F30626ED
:102AA00005FB06F100BF00BF054DED68C5F34165AC
:102AB0006D1C6B00B1FBF3F000E0002070BD000066
:102AC000001002400024F40000366E012DE9F843A6
:102AD000044614B90120BDE8F883207800F0010015
:102AE000002865D0FC48806800F00C07FA48C068F0
:102AF00000F003060C2F01D1032E01D0082F0AD1BC
:102B0000F548006800F40030002851D060680028C3
:102B10004ED10120DFE700BF6068B0F5803F06D1ED
:102B2000ED48006840F48030EB4908601AE06068C6
:102B3000B0F5A02F0BD1E848006840F48020E649AA
:102B400008600846006840F4803008600AE0E24807
:102B5000006820F48030E04908600846006820F4EE
:102B60008020086000BF606888B1FFF7ABF90546B8
:102B700006E0FFF7A7F9401B642801D90320AAE764
:102B8000D548006800F400300028F2D010E0FFF7CC
:102B900099F9054606E0FFF795F9401B642801D92D
:102BA000032098E7CC48006800F400300028F2D1F8
:102BB000207800F00200022860D1C748806800F049
:102BC0000C07C548C06800F003060C2F01D1022E87
:102BD00001D0042F18D1C048006800F4806018B1FB
:102BE000E06808B9012076E7BB48406820F0FE4065
:102BF000217C40EA0160B8494860B8480068FFF7A6
:102C000083F918B3012066E7E06800B3B2480068B2
:102C100040F48070B0490860FFF754F9054606E0BB
:102C2000FFF750F9401B022801D9032053E7AA48B7
:102C3000006800F480600028F2D0A748406820F0C7
:102C4000FE40217C40EA0160A349486016E0A248AA
:102C5000006820F48070A0490860FFF733F905464A
:102C600006E0FFF72FF9401B022801D9032032E7C5
:102C70009948006800F480600028F2D1207800F0C4
:102C80000800082836D16069D0B1934894300068B4
:102C900040F001009049C1F89400FFF713F9054690
:102CA00006E0FFF70FF9401B022801D9032012E7C5
:102CB00089489430006800F002000028F1D019E043
:102CC00085489430006820F001008349C1F89400E1
:102CD000FFF7F8F8054606E0FFF7F4F8401B022876
:102CE00001D90320F7E67C489430006800F0020028
:102CF0000028F1D1207800F00400042872D14FF0B0
:102D000000087548806D012121EA107078B100BF7C
:102D10007148806D40F080506F4988650846806D2D
:102D200000F08050009000BF00BF4FF001086C48D9
:102D3000006800F48070B0B96948006840F48070A1
:102D400067490860FFF7BEF8054606E0FFF7BAF8E6
:102D5000401B022801D90320BDE66148006800F449
:102D600080700028F2D000BFA068012808D15A481E
:102D70009030006840F001005749C1F8900021E010
:102D8000A06805280FD154489030006840F0040036
:102D90005149C1F890000846D0F8900040F0010079
:102DA000C1F890000EE04C489030006820F001001F
:102DB0004949C1F890000846D0F8900020F004007E
:102DC000C1F8900000BFA068A8B1FFF77BF80546E6
:102DD00009E0FFF777F8401B41F28831884202D9B9
:102DE000032078E625E03C489030006800F00200BF
:102DF0000028EED013E0FFF765F8054608E0FFF77E
:102E000061F8401B41F28831884201D9032062E613
:102E100031489030006800F002000028EFD1B8F18E
:102E2000010F05D12C48806D20F080502A4988651B
:102E300000BF207800F02000202836D1A069D0B152
:102E400025489830006840F001002349C1F89800F7
:102E5000FFF738F8054606E0FFF734F8401B022874
:102E600001D9032037E61C489830006800F00200C2
:102E70000028F1D019E018489830006820F00100CF
:102E80001549C1F89800FFF71DF8054606E0FFF761
:102E900019F8401B022801D903201CE60E4898307F
:102EA000006800F002000028F1D1E069002860D03D
:102EB0000948806800F00C000C287FD0E0690228E7
:102EC00058D10548006820F0807003490860FEF77B
:102ED000F9FF05460DE000000010024058000020F8
:102EE00000700040FEF7EEFF401B022801D90320CE
:102EF000F1E54D48006800F000700028F2D1D4E9F7
:102F00000810401E41EA0011A06A41EA0021208E0B
:102F10000122C2EB500041EA40513420005DC2EB77
:102F2000500041EA40612C20005D41EAC0603E490A
:102F3000C9683E4A114008433B49C86008460068DA
:102F400040F0807008600846C06840F08070C8603B
:102F5000FEF7B8FF054606E0FEF7B4FF401B022867
:102F600001D90320B7E53048006800F00070002860
:102F7000F2D056E02C48006820F080702A490860A2
:102F80000846C06820F00300C8600846C0682849A9
:102F900008402549C860FEF795FF054607E00DE0AB
:102FA000FEF790FF401B022801D9032093E51E483D
:102FB000006800F000700028F2D132E0E0690128DA
:102FC00000D188E51848C66806F00301206A8142EE
:102FD00025D106F0F001606A401EB1EB001F1ED142
:102FE00006F4FE41A06AB1EB002F18D106F078413B
:102FF0002C20005DB1EBC06F11D106F4C001208E12
:103000000122C2EB5000B1EB405F08D106F0C06175
:103010003420005DC2EB5000B1EB406F01D00120C5
:1030200059E5002057E50000001002400C809F0188
:10303000FFFFEEFE70B504462546681EB0F1807FA6
:1030400001D301200FE0681E4FF0E02148610F21FD
:103050004FF0FF3001F076FF00204FF0E021886153
:1030600007200861002070BD7047704770477047A7
:103070007047704730B502460B4600BF92F83C00DF
:10308000012801D1022030BD012082F83C0000BFA0
:10309000022082F83D001068416810688468234D62
:1030A0001068A84207D0224D1068A84203D0214DD5
:1030B0001068A84203D121F47001586801431E48EA
:1030C00001401868014310684160184D1068A8421B
:1030D0001BD01068B0F1804F17D0184D1068A8426F
:1030E00013D0174D1068A8420FD0164D1068A84293
:1030F0000BD00F4D1068A84207D0134D1068A8429E
:1031000003D00C4D1068A84205D124F080049868C3
:10311000044310688460012082F83D0000BF002055
:1031200082F83C0000BF00BFADE70000002C01406A
:1031300000340140005001408FFFFFFD00040040BB
:1031400000080040000C004000400140704710B5EE
:1031500004460CB9012010BD94F83D0028B90020A8
:1031600084F83C00204600F029F8022084F83D0055
:10317000211D206800F010FE012084F8480000BFE7
:1031800084F83E0001213F20015540200155412097
:103190000155422001554320015500BF00BF0120C9
:1031A00084F844004520015546200155472001552B
:1031B00000BF012084F83D000020CCE738B504466C
:1031C0000D492068884215D100BF0C48806D40F041
:1031D00002000A4988650846806D00F002000090F0
:1031E00000BF00BF002211461D20FEF7F3FE1D2088
:1031F000FEF7E0FE38BD0000000400400010024071
:10320000014691F83D00012801D0012070470220BD
:1032100081F83D000868C06840F001000B68D86084
:1032200008688068074B00EA0302062A08D0B2F556
:10323000803F05D00868006840F001000B68186006
:103240000020E3E7070001002DE9F04104460D46A8
:1032500000BF94F83C00012802D10220BDE8F081B3
:10326000012084F83C0000BF022084F83D00206863
:1032700086684248064026F47F46206886602868B3
:10328000B0F5005F33D015DC402851D008DC0028B1
:1032900058D0102857D0202856D0302862D154E07A
:1032A000502831D0602839D0702813D0B0F5805F15
:1032B00058D10EE000F00F01002953D10011A0F504
:1032C000803008284ED2DFE800F0414243444546B2
:1032D000474848E0D5E902136A68206800F0CCFD51
:1032E0002068866846F07706206886603BE0D5E96E
:1032F00002136A68206800F0BFFD2068806840F40F
:103300008040216888602EE0EA686968206800F0E3
:10331000CBFD5021206800F0BBFD24E0EA6869681D
:10332000206800F0D4FD6021206800F0B1FD1AE0B3
:10333000EA686968206800F0B7FD4021206800F065
:10334000A7FD10E000BF00BF00BF00BF00BF00BF6F
:1033500000BF00BF00BF00BF00BF2968206800F0A9
:1033600097FD00E000BF00BF012084F83D0000BFD2
:10337000002084F83C0000BF00BF6FE788FFCEFF4D
:10338000704710B5044620680069C0F34000D8B10A
:103390002068C068C0F34000B0B16FF0020021683F
:1033A0000861012020772068806900F0030018B1CF
:1033B0002046FFF7E5FF05E0204600F002F9204631
:1033C00000F000F90020207720680069C0F3800039
:1033D000D8B12068C068C0F38000B0B16FF00400BD
:1033E00021680861022020772068806900F440701D
:1033F00018B12046FFF7C4FF05E0204600F0E1F8D1
:10340000204600F0DFF80020207720680069C0F334
:10341000C000D8B12068C068C0F3C000B0B16FF080
:10342000080021680861042020772068C06900F046
:10343000030018B12046FFF7A3FF05E0204600F087
:10344000C0F8204600F0BEF8002020772068006910
:10345000C0F30010D8B12068C068C0F30010B0B14C
:103460006FF0100021680861082020772068C0698B
:1034700000F4407018B12046FFF782FF05E02046B7
:1034800000F09FF8204600F09DF80020207720688B
:10349000006900F0010058B12068C06800F0010028
:1034A00030B16FF0010021680861204600F08BF810
:1034B00020680069C0F3C01058B12068C068C0F32C
:1034C000C01030B16FF08000216808612046FFF71E
:1034D000CCFD20680069C0F3002058B12068C068A6
:1034E000C0F3C01030B16FF48070216808612046CD
:1034F000FFF7BAFD20680069C0F3801058B120685A
:10350000C068C0F3801030B16FF0400021680861DE
:10351000204600F059F820680069C0F3401058B107
:103520002068C068C0F3401030B16FF020002168FF
:1035300008612046FFF79AFD20680069C0F300503B
:1035400058B12068C068C0F3005030B16FF48010EB
:10355000216808612046FFF78BFD20680069C0F3F1
:10356000405058B12068C068C0F3405030B16FF48B
:103570000010216808612046FFF779FD2068006986
:10358000C0F3805058B12068C068C0F3805030B19B
:103590006FF48000216808612046FFF76AFD20680B
:1035A0000069C0F3C05058B12068C068C0F3C05073
:1035B00030B16FF40000216808612046FFF7C6FDB6
:1035C00010BD7047704770477047014600BF91F8C3
:1035D0007C00012801D102207047012081F87C0085
:1035E00000BF2420C1F880000868026808680068ED
:1035F00020F001000B68186022F00052002048669D
:10360000086802602020C1F8800000BF002081F817
:103610007C0000BF00BFDFE770B504460D4600BF69
:1036200094F87C00012801D1022070BD012084F8AB
:103630007C0000BF2420C4F8800020680668206851
:10364000006820F00100216808602068806820F090
:103650006060284321688860204600F04DFC2068A7
:1036600006602020C4F8800000BF002084F87C00A1
:1036700000BF00BFD9E770B504460D4600BF94F8FF
:103680007C00012801D1022070BD012084F87C005B
:1036900000BF2420C4F88000206806682068006805
:1036A00020F00100216808602068806820F06040F8
:1036B000284321688860204600F01EFC20680660D0
:1036C0002020C4F8800000BF002084F87C0000BFE8
:1036D00000BFD9E710B504460CB9012010BDA069A0
:1036E00000B100E000BFD4F8800028B9002084F8C1
:1036F0007C00204600F02AF82420C4F880002068CE
:10370000006820F0010021680860204600F0E2FC1B
:10371000012800D1E2E7A06A10B1204600F024FCA5
:103720002068406820F490402168486020688068E4
:1037300020F02A00216888602068006840F00100BD
:1037400021680860204600F08BFCC7E710B586B002
:103750000446142101A8FCF726FE17492068884278
:1037600028D100BF1548C06D40F001001349C8655D
:103770000846C06D00F00100009000BF00BF00BF10
:103780000846C06C40F00100C8640846C06C00F0F8
:103790000100009000BF00BF0C20019002200290A9
:1037A0000020039004900C20059001A94FF0904058
:1037B000FEF796FA06B010BD0080004000100240EF
:1037C00000BFFEE78168024A1140491C81607047D2
:1037D000C0FFFF7F0146886800F01F007047024667
:1037E00002F1600000EB8103186800F0F8407047B8
:1037F00001468868C0F3C00070470146886800F041
:103800000100704701468868C0F3007070470146A8
:103810008868C0F3800070470146C86800F44060C3
:1038200008B9012070470020FCE700008168024AC7
:103830001140091D81607047C0FFFF7F70B500F126
:103840001404C1F3406504EB85031C68C1F30456FE
:103850000725B540AC43C1F3045502FA05F52C43E6
:103860001C6070BD826822F0E0720A43826070477B
:1038700010B500F1600404EB81031C6824F00044DF
:1038800014431C6010BD426922F000420A434261A9
:1038900070470000014908607047000014040140AF
:1038A000014908607047000034040140024909687A
:1038B0008143014A116070470404014002490968CC
:1038C0008143014A1160704724040140024909689C
:1038D0008143014A116070470004014002490968B0
:1038E0008143014A116070472004014000B589B04E
:1038F000202101A8FCF757FD1E481F490860002041
:10390000486010211C4881600021C1600161416153
:1039100004218161002101774177012101620021A9
:1039200080F824104FF49061C1624FF4806101630C
:10393000012180F838100903C163002180F840108C
:10394000FDF76AF908B1FCF792FE0C4801900620D9
:103950000290042003907F20049004200590002012
:10396000069001A90448FCF783FE08B1FCF77FFE2E
:1039700009B000BD0001005064000020001060325A
:1039800010B50948094908600020486008490748FF
:10399000816000210161C16041618161FDF74AFCE4
:1039A00008B1FCF764FE10BD140201403001002094
:1039B0002000C00000B58DB0302101A8FCF7F3FC59
:1039C0001048114908600846FDF770FF08B1FCF780
:1039D0004EFE0220019000208DF808008DF80900AD
:1039E0000390049005900690012007900020089015
:1039F000002201A90448FDF72FFE08B1FCF737FEAD
:103A00000DB000BD000C00505401002008B500BFEF
:103A10001148806C40F004000F4988640846806CAF
:103A200000F00400009000BF00BF00BF0846806C9B
:103A300040F0010088640846806C00F001000090AE
:103A400000BF00BF002211460B20FEF7C3FA0B2077
:103A5000FEF7B0FA08BD00000010024000B587B0C4
:103A6000142102A8FCF79FFC00BF3648C06C40F050
:103A700004003449C8640846C06C00F0040001909A
:103A800000BF00BF00BF0846C06C40F02000C86403
:103A90000846C06C00F02000019000BF00BF00BFCE
:103AA0000846C06C40F00100C8640846C06C00F0D5
:103AB0000100019000BF00BF00BF0846C06C40F08D
:103AC0000200C8640846C06C00F00200019000BF0C
:103AD00000BF002220214FF09040FEF7EDF90022B8
:103AE0004FF440711848FEF7E7F94FF40050029088
:103AF000164803900020049002A91348FEF7F0F83E
:103B0000202002900120039000200490059002A93B
:103B10004FF09040FEF7E4F84FF44070029001201F
:103B2000039000200490059002A90748FEF7D8F8FA
:103B3000002211462820FEF74DFA2820FEF73AFA17
:103B400007B000BD0010024000080048000011103E
:103B500010B51748174908604FF4E130486000215C
:103B600014488160C16001610C21416100218161C3
:103B7000016200200F4988620846FFF7ABFD08B1DB
:103B8000FCF775FD00210B48FFF775FD08B1FCF748
:103B90006EFD00210748FFF73FFD08B1FCF767FD08
:103BA0000448FFF712FD08B1FCF761FD10BD0000ED
:103BB000008000406801002010B50B480B490860E8
:103BC00000204860402109488160082101610021EE
:103BD0000175816141628162C162FEF74DFA08B1EF
:103BE000FCF745FD10BD000008030140F401002072
:103BF00000B587B0002003900490059006900090D7
:103C00000190029015481649086000204860002184
:103C10001348816040F60F71C1600021016180216D
:103C20008161FFF794FA08B1FCF721FD4FF4805051
:103C3000039003A90A48FFF707FB08B1FCF717FD3B
:103C4000202000900020029069460548FFF712FAF4
:103C500008B1FCF70CFD07B000BD000000040040F7
:103C60003002002000BFFEE77047704770B5164D68
:103C7000ED6805F00304144DED68C5F303156B1CE6
:103C8000022C0CD0032C09D1104DB5FBF3F50E4ED0
:103C9000F668C6F3062605FB06F10AE000BF0C4DE8
:103CA000B5FBF3F5084EF668C6F3062605FB06F1EC
:103CB00000BF00BF044DED68C5F341656D1C6A008F
:103CC000B1FBF2F070BD00000010024000366E0142
:103CD0000024F400704710B5FEF7FAF810BD00B5E7
:103CE000A9B038211BA8FCF75EFB142116A8FCF72D
:103CF0005AFB542101A8FCF756FB0020FEF7C6FA38
:103D000001201B9000041C900220229003211BA87C
:103D1000016206214162552181621421C1620221A2
:103D200001634163FEF7D2FE08B1FCF7A0FC0F204F
:103D30001690032017900020189019901A900821CF
:103D400016A8FEF73BFD08B1FCF791FC48F22000F5
:103D50000190002007904FF00050129001A8FEF74C
:103D600021FB08B1FCF783FC29B000BD05480068C1
:103D700040F47000034908604FF000600149803949
:103D80000860704788ED00E010B50248FFF7F9FAC7
:103D900010BD00003002002010B502682D4B984283
:103DA00011D0B0F1804F0ED02B4B98420BD02B4B43
:103DB000984208D02A4B984205D02A4B984202D00C
:103DC000294B984203D122F070024B681A43214BD1
:103DD00098421AD0B0F1804F17D01F4B984214D0A0
:103DE0001E4B984211D01E4B98420ED01D4B98424C
:103DF0000BD01E4B984208D01D4B984205D01D4B4E
:103E0000984202D0184B984203D122F44072CB68FA
:103E10001A4322F080034C6943EA040202608B6873
:103E2000C3620B6883620B4B98420ED00D4B9842D5
:103E30000BD00E4B984208D00D4B984205D00D4B3D
:103E4000984202D0084B984201D10B6903630123C9
:103E5000436110BD002C01400004004000080040F8
:103E6000000C00400034014000500140004001407F
:103E7000004401400048014030B50C46816821F4FF
:103E80007F4142EA032525432943816030BD00007C
:103E90000A468168034B194042F0070319438160C9
:103EA000704700008FFFCFFF30B50B461446026A03
:103EB000056A25F001050562816921F0F00141EAFA
:103EC000041122F00A021A438161026230BD30B54A
:103ED0000B461446056A25F0100505628169026AE1
:103EE00021F4704141EA043122F0A00242EA0312B7
:103EF0008161026230BD00007FB517A660CECDE9BA
:103F0000025617A660CECDE90056456E2DB90125A3
:103F1000A0F86A50A0F868501CE00823082405683F
:103F2000AD68C5F342610568AD686A0F02ADAD5C6E
:103F300015FB04F51DF8026095FBF6F5A0F86A5034
:103F400002AD6D5C15FB03F51DF8016095FBF6F500
:103F5000A0F868507FBD00000101010307010000C7
:103F6000080402040801010190F8281001F0010181
:103F700039B10168496821F40031C26A114302680D
:103F8000516090F8281001F00201022907D1016860
:103F9000496821F48031026B11430268516090F846
:103FA000281001F00401042907D10168496821F4AF
:103FB0008021426B11430268516090F8281001F093
:103FC0000801082907D10168496821F40041826B82
:103FD00011430268516090F8281001F01001102977
:103FE00007D10168896821F48051C26B11430268CE
:103FF000916090F8281001F02001202907D1016874
:10400000896821F40051026C11430268916090F8B4
:10401000281001F04001402913D10168496821F4BA
:104020008011426C114302685160416CB1F5801FF0
:1040300007D10168496821F4C001826C114302680C
:10404000516090F8281001F08001802907D10168A3
:10405000496821F40021C26C114302685160704725
:1040600038B504460020C4F88800FDF72BFF05464C
:104070002068006800F0080008280CD16FF07E402E
:104080002B4600224FF400110090204600F01AFF4A
:1040900008B1032038BD2068006800F0040004283F
:1040A0000CD16FF07E402B4600224FF4800100902F
:1040B000204600F007FF08B10320EBE72020C4F8FA
:1040C0008000C4F8840000BF002084F87C0000BF9A
:1040D00000BFDFE72DE9FC5F04464FF00009002038
:1040E00000908346F7492068884200D100E000BF75
:1040F0002169A068084361690843E16940EA010A4F
:10410000606E40EA0A0A20680068EF49084040EA09
:104110000A00216808602068406820F44050E16887
:10412000084321684860D4F818A0E649206888420E
:1041300002D0206A40EA0A0A20688068E349084001
:1041400040EA0A00216888602068C06A20F00F00F9
:10415000616A08432168C86200BFDD49206888425F
:1041600016D1DC48006800F0030030B1012808D007
:10417000022804D0032808D105E0012507E0022524
:1041800005E0042503E0082501E0102500BF8DE0CF
:10419000D1492068884216D1CE48006800F00C0052
:1041A00030B1042808D0082804D00C2808D105E034
:1041B000002507E0022505E0042503E0082501E0CD
:1041C000102500BF72E0C5492068884216D1C14859
:1041D000006800F0300030B1102808D0202804D04A
:1041E000302808D105E0002507E0022505E0042578
:1041F00003E0082501E0102500BF57E0B84920681A
:10420000884216D1B348006800F0C00030B14028A1
:1042100008D0802804D0C02808D105E0002507E098
:10422000022505E0042503E0082501E0102500BF74
:104230003CE0AC492068884219D1A648006800F4E7
:10424000407048B1B0F5807F0AD0B0F5007F05D04E
:10425000B0F5407F08D105E0002507E0022505E024
:10426000042503E0082501E0102500BF1EE0954964
:104270002068884219D19748006800F4406048B12E
:10428000B0F5806F0AD0B0F5006F05D0B0F5406F83
:1042900008D105E0002507E0022505E0042503E03C
:1042A000082501E0102500BF00E0102500BF85496A
:1042B0002068884270D135B1022D46D0042D6CD0D3
:1042C000082D6BD1C7E0FEF791FB616A09B90121A6
:1042D00038E0616A012901D1022133E0616A0229D3
:1042E00001D104212EE0616A032901D1062129E0D0
:1042F000616A042901D1082124E0616A052901D1FC
:104300000A211FE0616A062901D10C211AE0616AC5
:10431000072901D1102115E0616A082901D1202166
:1043200010E0616A092901D140210BE0616A0A2984
:1043300001D1802106E0616A0B2902D14FF480711E
:1043400000E00121B0FBF1FBDFE0606A08B9012069
:104350003BE0606A012801D1022036E0606A022851
:1043600001D1042031E0606A032801D106202CE04D
:10437000606A042801D1082027E0606A052801D17D
:104380000A2022E0606A062801D10C201DE0606A44
:10439000072804D1102018E05BE21AE0B2E0606A5E
:1043A000082801D1202010E0606A092801D14020AE
:1043B0000BE0606A0A2801D1802006E0606A0B28C1
:1043C00002D14FF4807000E001204749B1FBF0FBBF
:1043D0009BE0FEF72FFB616A09B9012138E0616AB1
:1043E000012901D1022133E0616A022901D10421AE
:1043F0002EE0616A032901D1062129E0616A0429BE
:1044000001D1082124E0616A052901D10A211FE0B8
:10441000616A062901D10C211AE0616A072901D1DC
:10442000102115E0616A082901D1202110E0616A9C
:10443000092901D140210BE0616A0A2901D18021BB
:1044400006E0616A0B2902D14FF4807100E001217E
:10445000B0FBF1FB59E0606A08B901204DE0606AE9
:10446000012801D1022048E0606A022801D104201D
:1044700043E0606A032801D106203EE0606A042818
:1044800001D1082039E0606A052801D10A2034E012
:10449000606A062801D10C202FE0606A072801D14C
:1044A00010202AE0606A082801D1202025E0606AF7
:1044B000092801D1402020E0606A0A2816D1802016
:1044C0001BE0000000800040F369FFCFFFF4FF1104
:1044D000003801408810024000440040004800407D
:1044E000004C0040005000400024F400606A0B289B
:1044F00002D14FF4807000E001204FF40041B1FB85
:10450000F0FB02E00120009000BF00BFBBF1000FF4
:104510000AD0606800EB4000584503D8606800038B
:10452000584502D20120009030E335B1022D64D00D
:10453000042D70D0082D6FD11CE1FEF757FA064606
:10454000606A08B9012238E0606A012801D10222BC
:1045500033E0606A022801D104222EE0606A032859
:1045600001D1062229E0606A042801D1082224E052
:10457000606A052801D10A221FE0606A062801D17D
:104580000C221AE0606A072801D1102215E0606A47
:10459000082801D1202210E0606A092801D14022B8
:1045A0000BE0606A0A2801D1802206E0606A0B28CD
:1045B00002D14FF4807200E001229446002330467D
:1045C0001946FBF779FE4FF4807300228C46A0FB5E
:1045D000031E0CFB03E300FB0233606840088C46BB
:1045E0001CEB000743EB0201D4F804C06246002331
:1045F0003846FBF761FE81461DE1606A08B9012279
:104600003AE0606A012801D1022235E0606A02289E
:1046100003D1042230E04FE00AE1606A032801D1AF
:10462000062229E0606A042801D1082224E0606A99
:10463000052801D10A221FE0606A062801D10C2258
:104640001AE0606A072801D1102215E0606A082884
:1046500001D1202210E0606A092801D140220BE03C
:10466000606A0A2801D1802206E0606A0B2802D124
:104670004FF4807200E0012294460023F748194667
:10468000FBF71AFE4FF4807300228C46A0FB031E3A
:104690000CFB03E300FB0233606840088C461CEB14
:1046A000000743EB0201D4F804C0624600233846F9
:1046B000FBF702FE8146BEE0FEF7BCF90646606AE3
:1046C00008B9012238E0606A012801D1022233E0F2
:1046D000606A022801D104222EE0606A032801D119
:1046E000062229E0606A042801D1082224E0606AD9
:1046F000052801D10A221FE0606A062801D10C2298
:104700001AE0606A072801D1102215E0606A0828C3
:1047100001D1202210E0606A092801D140220BE07B
:10472000606A0A2801D1802206E0606A0B2802D163
:104730004FF4807200E0012294460023304619466F
:10474000FBF7BAFD4FF4807300228C46A0FB031EDA
:104750000CFB03E300FB0233606840080F1843EBD7
:104760000201D4F804C0624600233846FBF7A4FDDA
:10477000814660E0606A08B9012238E0606A012879
:1047800001D1022233E0606A022801D104222EE026
:10479000606A032801D1062229E0606A042801D159
:1047A000082224E0606A052801D10A221FE0606A1D
:1047B000062801D10C221AE0606A072801D11022D4
:1047C00015E0606A082801D1202210E0606A0928FB
:1047D00001D140220BE0606A0A2801D1802206E064
:1047E000606A0B2802D14FF4807200E001229446E7
:1047F00000234FF400401946FBF75EFD4FF4807331
:1048000000228C46A0FB031E0CFB03E300FB0233DB
:10481000606840088C461CEB000743EB0201D4F8AB
:1048200004C0624600233846FBF746FD814602E09D
:104830000120009000BF00BFB9F5407F06D3B9F555
:10484000801F03D22068C0F80C902DE30120009057
:104850002AE3E069B0F5004F73D1092D72D2DFE889
:1048600005F005509D71E6717171F200FEF7BEF81A
:104870000646606A08B9012038E0606A012801D163
:10488000022033E0606A022801D104202EE0606A31
:10489000032801D1062029E0606A042801D10820FC
:1048A00024E0606A052801D10A201FE0606A06281A
:1048B00001D10C201AE0606A072801D1102015E010
:1048C000606A082801D1202010E0606A092801D11F
:1048D00040200BE0606A0A2801D1802006E0606A6F
:1048E0000B2802D14FF4807000E00120B6FBF0F0FD
:1048F0004000616800EB5100B0FBF1F01FFA80F955
:1049000030E1FEF785F80646606A08B901203AE012
:10491000606A012801D1022035E0606A022801D1D5
:10492000042030E0606A032801D106202BE0606A91
:10493000042801D1082026E0606A052803D10A2056
:1049400021E027E10BE1606A062801D10C201AE082
:10495000606A072801D1102015E0606A082801D19B
:10496000202010E0606A092801D140200BE0606A35
:104970000A2801D1802006E0606A0B2802D14FF49A
:10498000807000E00120B6FBF0F04000616800EBB1
:104990005100B0FBF1F01FFA80F9E3E0606A08B95A
:1049A000012038E0606A012801D1022033E0606A0A
:1049B000022801D104202EE0606A032801D10620DC
:1049C00029E0606A042801D1082024E0606A0528F3
:1049D00001D10A201FE0606A062801D10C201AE0EC
:1049E000606A072801D1102015E0606A082801D10B
:1049F000202010E0606A092801D140200BE0606AA5
:104A00000A2801D1802006E0606A0B2802D14FF409
:104A1000807000E001201149B1FBF0F040006168B6
:104A200000EB5100B0FBF1F01FFA80F99AE0FEF7BD
:104A300001F80646606A08B901203BE0606A012877
:104A400002D1022036E040E0606A022801D1042051
:104A500030E0606A032803D106202BE00024F40034
:104A6000606A042801D1082024E0606A052801D189
:104A70000A201FE0606A062801D10C201AE0606A53
:104A8000072801D1102015E0606A082801D12020F4
:104A900010E0606A092801D140200BE0606A0A2812
:104AA00001D1802006E0606A0B2802D14FF48070AB
:104AB00000E00120B6FBF0F04000616800EB51001F
:104AC000B0FBF1F01FFA80F94CE0606A08B90120F0
:104AD00038E0606A012801D1022033E0606A0228D0
:104AE00001D104202EE0606A032801D1062029E0CC
:104AF000606A042801D1082024E0606A052801D1F9
:104B00000A201FE0606A062801D10C201AE0606AC2
:104B1000072801D1102015E0606A082801D1202063
:104B200010E0606A092801D140200BE0606A0A2881
:104B300001D1802006E0606A0B2802D14FF480701A
:104B400000E001204FF40041B1FBF0F0400061684B
:104B500000EB5100B0FBF1F01FFA80F902E00120F8
:104B6000009000BF00BFB9F1100F10D3B9F5803F1E
:104B70000DD24FF6F07009EA00000190C9F342012E
:104B800001980843019001982168C8608CE10120D8
:104B9000009089E1092D70D2DFE805F0054F9A6F8A
:104BA000E26F6F6FF300FDF721FF0646606A08B9F8
:104BB000012038E0606A012801D1022033E0606AF8
:104BC000022801D104202EE0606A032801D10620CA
:104BD00029E0606A042801D1082024E0606A0528E1
:104BE00001D10A201FE0606A062801D10C201AE0DA
:104BF000606A072801D1102015E0606A082801D1F9
:104C0000202010E0606A092801D140200BE0606A92
:104C10000A2801D1802006E0606A0B2802D14FF4F7
:104C2000807000E00120B6FBF0F0616800EB5100FD
:104C3000B0FBF1F01FFA80F929E1FDF7E9FE064625
:104C4000606A08B9012039E0606A012801D10220B8
:104C500034E0606A022801D104202FE0606A032852
:104C600001D106202AE0606A042801D1082025E04D
:104C7000606A052802D10A2020E005E1606A062862
:104C800001D10C201AE0606A072801D1102015E03C
:104C9000606A082801D1202010E0606A092801D14B
:104CA00040200BE0606A0A2801D1802006E0606A9B
:104CB0000B2802D14FF4807000E00120B6FBF0F029
:104CC000616800EB5100B0FBF1F01FFA80F9DEE003
:104CD000606A08B9012038E0606A012801D1022029
:104CE00033E0606A022801D104202EE0606A0328C4
:104CF00001D1062029E0606A042801D1082024E0BF
:104D0000606A052801D10A201FE0606A062801D1E7
:104D10000C201AE0606A072801D1102015E0606AB3
:104D2000082801D1202010E0606A092801D1402024
:104D30000BE0606A0A2801D1802006E0606A0B2837
:104D400002D14FF4807000E001205D49B1FBF0F02A
:104D5000616800EB5100B0FBF1F01FFA80F996E0BA
:104D6000FDF768FE0646606A08B9012039E0606A0E
:104D7000012801D1022034E0606A022802D1042017
:104D80002FE038E0606A032801D1062029E0606A3C
:104D9000042801D1082024E0606A052801D10A20F6
:104DA0001FE0606A062801D10C201AE0606A07281B
:104DB00001D1102015E0606A082801D1202010E000
:104DC000606A092801D140200BE0606A0A2801D1FD
:104DD000802006E0606A0B2802D14FF4807000E06A
:104DE0000120B6FBF0F0616800EB5100B0FBF1F080
:104DF0001FFA80F94BE0606A08B9012038E0606A68
:104E0000012801D1022033E0606A022801D1042088
:104E10002EE0606A032801D1062029E0606A042898
:104E200001D1082024E0606A052801D10A201FE092
:104E3000606A062801D10C201AE0606A072801D1B7
:104E4000102015E0606A082801D1202010E0606A77
:104E5000092801D140200BE0606A0A2801D1802096
:104E600006E0606A0B2802D14FF4807000E0012058
:104E70004FF40041B1FBF0F0616800EB5100B0FB72
:104E8000F1F01FFA80F902E00120009000BF00BF9E
:104E9000B9F1100F06D3B9F5803F03D22068C0F8EE
:104EA0000C9001E0012000900120A4F86A00A4F811
:104EB00068000020E06620670098BDE8FC9F0000C5
:104EC0000024F4002DE9F04104460D4617469846AB
:104ED000069E21E0701CF8B1FCF7F4FFA0EB08007F
:104EE000B04200D8C6B92068006820F4D0702168AC
:104EF00008602068806820F0010021688860202018
:104F0000C4F88000C4F8840000BF002084F87C004E
:104F100000BF0320BDE8F0812068C0692840A84296
:104F200001D1012000E00020B842D3D00020F1E7F9
:104F300000BFFEE702480068C0F30220704700008F
:104F40000CED00E010B5002804DB0A07130E054A3B
:104F5000135406E00A07140E034A00F00F031B1F48
:104F6000D45410BD00E400E018ED00E010B50122BB
:104F700011025B48FCF7A0FF002419E059485A4988
:104F8000096880FB01304FF400229A1840F10000BC
:104F9000010341EA1250554909882144544A32F824
:104FA0001110952202FB01004F490860601C44B2B9
:104FB000192CE3DB4C48006800154E49088000249A
:104FC0007AE04D4800884B49B1F90010884216DA62
:104FD000464800882044464931F810004549B1F957
:104FE000001088420BDD0120444908703F480088CA
:104FF00020443F4931F810004149088018E03E48FC
:1050000000883C49B1F90010884211DD374800881A
:105010002044374931F810003649B1F90010884270
:1050200006DA00203549087035480088354908807F
:105030002E49098821442E4A32F811102E4A12882E
:1050400012B2501A002801DB014600E04142022959
:1050500007DD264800882044254931F810002649FC
:1050600008802648007888B12048008820442049DC
:1050700031F8100022490988884207DD1B48008862
:1050800020441B4931F810001D49088015481E496D
:10509000096880FB01104FF40023C91840F100009B
:1050A000020342EA115016490988952202FB0100C9
:1050B00015490860601C44B2192C82DB1248006854
:1050C00000F500204FF6FF7101EA20500F490880DB
:1050D00000224FF480710248FCF7EEFE10BD000084
:1050E000000800486BFF0F00440000203000002043
:1050F0007C0200204C000020340000203200002000
:105100003800002036000020480000203A0000202F
:10511000FCF7EAFEFEF7E3FDFEF7A0FCFEF776FCE7
:10512000FEF716FDFEF746FCFEF746FDFEF7DEFB3A
:10513000FEF726FCFEF75CFD05E04FF6FF71304AF6
:1051400022F81010401C6428F7DB00212D48FCF7E2
:1051500019FC2D48FCF74EFA2C48FEF751F8322284
:1051600027492B48FBF7C4FF49E001225102294897
:10517000FCF7A2FEFCF7A6FE04462748038800229F
:1051800011462048FCF7DEFB244800F04BF8244889
:10519000007868B120480088401C1F4908800846F4
:1051A0000088B0F5FA7F0EDB00201D4908700AE088
:1051B00019480088401E184908800846008810B920
:1051C0000120174908701648007810B100211348D3
:1051D00081621248FCF750FF1048FDF73BF80C487D
:1051E000FBF7D4FE00224FF400710A48FCF764FE7E
:1051F00000BFFCF767FE001B0328FAD300BFB4E72B
:105200007C020020540100203001002030020020E8
:1052100064000020000800484E000020F401002037
:10522000500000200146014A5068704700000020ED
:105230004FF04070E1EE100A7047000000000000DF
:105240000000010203040607080900000000010233
:1052500003040000745200080000002064000000F5
:1052600014020008D8520008640000204C1000000E
:1052700030020008020000000000000004000000EE
:105280000040000008000000008000001000000046
:1052900000C00000200000000000010040000000ED
:1052A00000400100000000000000000000000000BD
:1052B00000000000000000000000000000000000EE
:1052C00000000000010000000000000010000000CD
:0852D000010000000024F400BD
:04000005080001D915
:00000001FF
